:020000040800F2
:10000000781000209D010008A72B00088923000814
:10001000A52B00083D040008AF41000800000000C7
:10002000000000000000000000000000B72B0008E6
:100030006505000800000000B52B0008DD2C000855
:10004000B7010008B7010008B7010008B7010008B0
:10005000B7010008B7010008B7010008B7010008A0
:10006000B7010008B7010008B7010008B701000890
:10007000B7010008B7010008B7010008B701000880
:10008000B7010008B7010008F9020008B70100082D
:10009000B7010008B7010008B7010008B701000860
:1000A000B7010008B7010008B7010008B701000850
:1000B000B7010008B7010008B7010008B701000840
:1000C000B7010008B7010008B7010008B701000830
:1000D000B7010008B7010008B7010008B701000820
:1000E000B7010008B7010008B7010008B701000810
:1000F000B7010008B7010008B7010008B701000800
:10010000B7010008B7010008B7010008B7010008EF
:10011000B7010008B7010008B7010008B7010008DF
:10012000B7010008B7010008B7010008B7010008CF
:10013000B7010008B7010008B7010008B7010008BF
:10014000B7010008B7010008B7010008A92B000893
:10015000B7010008B7010008B7010008B70100089F
:10016000B7010008B7010008B7010008B70100088F
:10017000B7010008B7010008B7010008000000003F
:10018000B7010008B7010008DFF80CD000F0A2F8B2
:1001900000480047114500087810002006488047B5
:1001A00006480047FEE7FEE7FEE7FEE7FEE7FEE75C
:1001B000FEE7FEE7FEE7FEE7952D0008890100084F
:1001C0002DE9F05F0546002092469B46884606468C
:1001D000814640241BE0284641464746224600F01F
:1001E00069F853465A46C01A914110D31146184631
:1001F000224600F050F82D1A67EB01084F462246C0
:100200000120002100F047F817EB00094E41201EA5
:10021000A4F10104DFDC484631462A464346BDE8E6
:10022000F09F40EA01039B0703D009E008C9121FB1
:1002300008C0042AFAD203E011F8013B00F8013BA0
:10024000521EF9D27047D2B201E000F8012B491ECC
:10025000FBD270470022F6E710B513460A46044663
:100260001946FFF7F0FF204610BD30B50B4601469A
:1002700000202022012409E021FA02F59D4205D345
:1002800003FA02F5491B04FA02F52844151EA2F1EF
:100290000102F1DC30BD202A04DB203A00FA02F131
:1002A000002070479140C2F1200320FA03F3194364
:1002B00090407047202A04DB203A21FA02F0002106
:1002C000704721FA02F3D040C2F120029140084366
:1002D00019467047064C074D06E0E06840F0010300
:1002E00094E8070098471034AC42F6D3FFF750FF6C
:1002F00094480008B448000810B5044800F0F0F92C
:10030000BDE81040024800F0EBB900006402002094
:10031000AC020020464910B54A6822F440324A60D7
:100320004A6843681A434A6001684A6822F4807246
:100330004A6001684A68036942EA03224A60016828
:100340004A6822F040724A6001684A6883681A432A
:100350004A6001688A6822F400628A6001688A68DB
:10036000C3681A438A60816A6FF07062D142016883
:100370008A6822F070628A6001688A680CD0836A99
:100380001A438A6001688A6822F040528A600168D4
:100390008A68C36A1A4301E022F040528A60016809
:1003A0008A6822F002028A6001688A68037E42EA53
:1003B00043028A6090F82010002901684A680FD033
:1003C00042F400624A6001684A6822F460424A606E
:1003D00001684A68174C436A04EB43331A4301E04F
:1003E00022F400624A600168CA6A22F47002CA629A
:1003F0000168CA6A838B104C04EB03531A43CA6228
:1004000001688A6822F400728A6001688A6890F83C
:10041000303042EA43228A6001688A6822F48062AE
:100420008A6001688A68406942EA8020886010BD5D
:100430000023014000E0FFFF0000F0FFFEE70000A6
:1004400070B50546D0F87803C46994F84E000328C7
:100450001BD0042818D1217B284603F018F9012865
:1004600012D1217B284603F0FDF8A16A814214D005
:10047000628B824211D2091AA162216A0844206269
:100480005FF0030084F84E0070BD237B628B28462A
:10049000216A02F0A7FC0420F4E7002084F84E0053
:1004A000284602F0FBFD70BDF8B50646D0F878038B
:1004B0000125C46994F84D0001280AD0022807D10B
:1004C000617B304603F0E3F8012811D002281AD0EE
:1004D000F8BD228B606A0095637B904200D882B29F
:1004E0003046E16902F08EFC022084F84D00F8BD30
:1004F000208B626A0021824208D9121A6262E36983
:100500001844E06103D084F84D50F8BD616284F86E
:100510004D10304602F0C5FDF8BD000010B50022B8
:100520004FEA020100EB8203521CC3F880130F2A2A
:10053000F8D300224FF400738418521C84F81C1165
:100540009A42F9D30170417001228270C0F8BC1345
:10055000027640238371417680F81C1380F81D23B6
:10056000002010BD7047000001229103014800F0F7
:10057000BFBA0000000C0240A12202742122427482
:100580000022428282820722C28202F0AEBD704700
:1005900078B50024009490F83C20012A19D001225B
:1005A00080F83C200A6807230568092A13D9EE68F9
:1005B0000A3A02EB420293409E43EE600B788A684F
:1005C0000A3B03EB43039A400368DD682A43DA6081
:1005D00010E0022078BD2E6902EB420293409E4358
:1005E0002E610B788A6803EB43039A4003681D6908
:1005F0002A431A614A681F23072A13D205686E6BC3
:10060000521E02EB820293409E436E630B790A886E
:100610005B1E92B203EB83039A4003685D6B2A432F
:100620005A6327E005680D2A12D22E6BD21F02EB07
:10063000820293409E432E630B790A88DB1F92B29D
:1006400003EB83039A4003681D6B2A431A6311E08E
:10065000EE6A0D3A02EB820293409E43EE620B7902
:100660000A880D3B92B203EB83039A400368DD6A6C
:100670002A43DA62164B0568144A9D4206D10D687A
:10068000122D03D1556845F48005556005689D42DB
:1006900018D10B68102B01D0112B13D1536843F4E0
:1006A00000035360096810290CD10A490A4A0968F5
:1006B000B1FBF2F101EB8101490000E0491E00911C
:1006C0000029FBD180F83C40002078BD0023014088
:1006D000002001401400002040420F007047704786
:1006E00070B50446006801684268C1F34001C2F376
:1006F000401251B34AB3216CC90603D4216C41F4B2
:1007000000712164816811F0405F17D1217EA9B981
:10071000C16A11F4700F02D0816849050ED4416896
:1007200021F020014160206C20F480702064206C56
:10073000C00403D4206C40F0010020642046FFF781
:10074000CDFF21686FF012000860206801684268E0
:10075000C1F38001C2F3C01289B382B3216CC90610
:1007600003D4216C41F400512164816811F4401FCD
:100770001ED1816B11F4401F02D08168490517D446
:100780004168490514D4816811F0405F10D1217E81
:1007900071B9416821F080014160206C20F48050E3
:1007A0002064206CC00503D4206C40F0010020645C
:1007B0002046FFF7ECFE21686FF00C00086020680F
:1007C0000168426811F0010FC2F380120ED06AB1C5
:1007D0000068C0070AD0206C40F4803020642046B6
:1007E00000F046F821686FF0010008602068016899
:1007F0004268C1F34011C2F3806200290DD0002A83
:100800000BD0616C41F0020161646FF0200505605E
:100810002046FFF764FF2068056070BD70B50400D6
:100820004FF0000503D0206C002610B107E0012036
:1008300070BD204600F01EF8666484F83C60206CB1
:10084000C00610D4206C20F4885040F002002064D0
:100850002046FFF75FFD6664206C20F0020040F048
:100860000100206400E0012584F83C60284670BD4A
:100870007047000070B586B0044614216846FFF743
:10088000E9FC21491F4E256800231F4A143903241F
:100890001E48B54211D1156845F48075156012687F
:1008A00002F4807205920A6842F001020A60096847
:1008B00001F001010591022113E0154EB5421ED150
:1008C000156845F400751560126802F4007205920F
:1008D0000A6842F001020A60096801F0010105910D
:1008E0000421CDE900140293694600F025F80022A6
:1008F0001146122000F06EFE122000F05DFE06B0E0
:1009000070BD000000200140443802400000024059
:100910000021014070B5044600F0F0F80546601C67
:1009200002D004480078044400F0E8F8401BA042DC
:10093000FAD370BD080000202DE9F84F00224FF0D7
:10094000010803254FF00F0E0B6808FA02F423404C
:10095000A3426ED14E68012E05D0022E03D0112E77
:1009600001D0122E12D186684FEA420C05FA0CF71C
:10097000BE43CF6807FA0CF7374387604668A64343
:100980000C79C4F30014944034434460C6685700A3
:1009900005FA07FC8C6826EA0C06BC403443C460A8
:1009A0004C68022C01D0122C13D1D40800EB840423
:1009B000A346D4F8209054074FEAD46A0EFA0AF6F8
:1009C00029EA06090E6906FA0AF646EA0906CBF88C
:1009D000206006680C7926EA0C0604F00304BC408B
:1009E000344304604C68E40065D5364C266846F410
:1009F00080462660246822F0030604F480440094B4
:100A0000314C3444A446D4F808489607370F0EFA00
:100A100007F6B4432D4EB04201D1002624E02C4EFF
:100A2000B04201D101261FE02A4EB04202D1022677
:100A30001AE040E0284EB04201D1032614E0274ED0
:100A4000B04201D104260FE0254EB04201D1052667
:100A50000AE0244EB04201D1062605E0224EB04203
:100A600001D1072600E00826BE402643CCF80868DE
:100A70001E4E34684F689C43FF0300D51C4334600E
:100A80001A4C241D26684F689E43BF0300D51E43A1
:100A90002660164E083634684F689C43FF0200D526
:100AA0001C433460114E0C3634684F689C43BF02BF
:100AB00000D51C433460521C102AFFF445AFBDE83A
:100AC000F88F00004438024000300140000002402E
:100AD0000004024000080240000C024000100240E6
:100AE0000014024000180240001C0240003C01407B
:100AF0000AB1816170470904FBE700000148806882
:100B00007047000008000020D0F8C00202F06CBD61
:100B1000D0F8C00202F07DBD006803F099B800680B
:100B200003F09AB801EB810100EBC10090F85C0082
:100B3000704701EB810100EBC100C06C704710B53C
:100B4000044690F8B802012809D0012084F8B802C0
:100B5000206803F08CF8002084F8B80210BD022051
:100B600010BD2DE9FE430546DDE90B7095F8B8424E
:100B7000DDF828C0012C1CD001EB81044FF00109E5
:100B800005EBC40485F8B892002684F83D6084F82B
:100B90003830A4F8400084F8391084F83F7002F02F
:100BA0007F0884F83A805FEA026805D584F83B90B4
:100BB00004E00220BDE8FE8384F83B6084F83CC07A
:100BC000CDF800C0CDE90170286803F0B1F885F8D0
:100BD000B862EFE770472DE9F04101EB8104DDE9F0
:100BE00007E700EBC404DDF818C084F83B200226B8
:100BF00084F83F30BCF1000F0AD084F84260002531
:100C000053B1012B2BD0022B0FD0032B13D10CE0AF
:100C1000032584F84250F2E7BCF1010F0BD152B921
:100C2000D7B9012284F8512003E0AAB194F85020EA
:100C3000AAB184F84260C4E911E784F85C50E56425
:100C400084F8391084F85D50027C04F138010068A2
:100C5000BDE8F04103F0E8B894F85120E8E784F8E3
:100C60004250E8E72DE9F04104460068064602F0EC
:100C7000FAFF01286FD1206803F005FA00286AD036
:100C8000206803F000FA800203D521684FF40010B9
:100C90004861206803F0F7F9C00203D521684FF4DA
:100CA00080104861206803F0EEF9400103D5216807
:100CB0004FF080604861206803F0E5F9800702D5B5
:100CC000216802204861206803F0DDF9800010D51A
:100CD000D6F8400420F02E00C6F840042046FFF766
:100CE00017FF0121206803F0B3F921684FF000508D
:100CF0004861206803F0C7F9C00102D5204601F021
:100D0000AFFA206803F0BFF9000705D5204600F0D0
:100D1000D2F8216808204861206803F0B4F9800106
:100D200024D5206803F07CF8074600254FF0010821
:100D300015E000BF05F00F0108FA01F038420DD0B0
:100D400006EB4510D0F80005E9B20004204603D5B3
:100D500001F04EF802E01CE001F060F96D1CA068A3
:100D6000A842E7D821684FF000704861206803F07E
:100D70008AF9C043C0060CD42068816921F01001B3
:100D80008161204601F0C8FA2068816941F01001B4
:100D90008161BDE8F08170B58AB0040005D094F897
:100DA000B9022568002618B107E001200AB070BD1D
:100DB00084F8B862204600F027F8032084F8B902CE
:100DC000E86BC00500D42661206802F0EBFE04F158
:100DD000100128220D466846FFF723FA94E80F0019
:100DE00002F08AFE0121206803F078F928222946C2
:100DF0006846FFF716FA94E80F0003F0BDF80120EB
:100E000084F8B9020020D1E730B587B00446142138
:100E10006846FFF71FFA2068B0F1A04F39D11E488D
:100E20000024016841F00101016000681B4D00F0E1
:100E3000010005904FF40070CDE900046946284692
:100E40000294FFF779FD4FF4E05000900220CDE9C5
:100E50000104032003900A20049069462846FFF706
:100E60006BFD0D48001D016841F0800101600A48DA
:100E70001430016841F4804101600068002200F4F0
:100E8000804005901146432000F0A4FB432000F071
:100E900093FB07B030BD0000303802400000024034
:100EA000D0F8C00202F03CBCD0F8C00202F03CBC5A
:100EB000006803F0FAB8D0F8C00202F0ECBB10B53D
:100EC000044690F8B80201280DD0012084F8B80239
:100ED000206802F095FE0121206802F07BFE0020D0
:100EE00084F8B80210BD022010BD10B5044690F879
:100EF000B802012809D0012084F8B802206803F064
:100F000005F9002084F8B80210BD022010BD0000D1
:100F100070B5040025D094F83D00002520B984F870
:100F20003C50204600F0B8F8242084F83D002068AA
:100F3000016821F0010101602068016841F400416D
:100F400001602068016821F40041016000F0DAFCD2
:100F50004D4A6168914201D84C4900E04C498842B1
:100F600001D2012070BD4B492368B0FBF1F15E68EE
:100F700026F03F060E435E606368934206D94FF445
:100F8000967359434FF47A73B1FBF3F12368491C0C
:100F90001E6A26F03F06314319626168914210D8FB
:100FA0004900401EB0FBF1F2521CC2F30B02042AAE
:100FB00001D2042022E0B0FBF1F0401CC0F30B0092
:100FC0001CE0A268F2B301EBC10303EB0116431E60
:100FD000B3FBF6F35B1C43F480431B0549D092B38B
:100FE00001EBC10202EB0111401EB0FBF1F0401C0D
:100FF000C0F30B0040F4804040F400402168CA690F
:101000004CF6FF739A431043C861D4E907100143BB
:101010002068026822F0C00211430160D4E9030194
:1010200001432068826848F2FF339A43114381608C
:10103000D4E9050108432168CA6822F0FF02104381
:10104000C86001E00EE016E02068016841F001018F
:1010500001602564202084F83D00256384F83E501B
:10106000002070BD01EB4106431EB3FBF6F35B1C91
:10107000B3E70120C2E701EB4101401EB0FBF1F0F4
:10108000401CC0F30B00B7E7A086010080841E005F
:1010900000093D0040420F0010B586B004461421FF
:1010A0006846FFF7D7F814492068884221D11348D1
:1010B000016841F0020101600068694600F0020029
:1010C00005904FF4107000901220019001200290C2
:1010D00003200390042004900948FFF72DFC0748E3
:1010E0001030016841F400110160006800F4001044
:1010F000059006B010BD000000540040303802409A
:10110000000402402DE9FF41044600688168009117
:101110007749784E4FF04027884201D1324600E0AF
:101120003A469268019240688846029001D1304662
:1011300000E038464068039060684FF00105B0F564
:10114000007F1CD0D8B1900705D50398000602D5C2
:10115000204601F04BF90098C0070FD002984006D6
:101160007FD521682046CA68E16A8B1CE3620A8049
:10117000618E491E6186618E002967D071E00098FA
:10118000800719D50298000616D5616A20468A1C88
:10119000626222680988D160618D491E6185618D16
:1011A00051B901684A6822F0A0024A60418E19B91B
:1011B00080F8415000F0A0F80198C00705D00398CE
:1011C000400602D5204601F0E1F80198400622D5FC
:1011D000039880061FD52168414501D1304600E0C3
:1011E0003846406820F0600101D1304600E03846C2
:1011F00041602068416821F0A00141602068C16819
:101200008068019084F84150606C40F00200606496
:10121000204600F072F80098000767D50298800613
:1012200064D52068416821F0A001416021684145F2
:1012300001D1304600E03846406820F0600000D020
:101240003E46706020688068009043E001684A680C
:1012500022F060024A60418D19B980F8415000F0D7
:101260004BF8009840061ED5029880061BD52068D2
:10127000416821F0600141602168414501D130465B
:1012800000E03846406820F0A00101D1304600E07F
:101290003846416084F84150606C40F00200606460
:1012A000204600F02AF8019800071FD50398800611
:1012B0001CD52168414501D1304600E038464068E0
:1012C00020F0A00000D03E4670602068416821F008
:1012D0006001416084F84150606C40F0040060643B
:1012E00004B02046BDE8F04100F007B8BDE8FF813A
:1012F0000038004000340040704770472DE9F04747
:10130000040005D094F841004FF0000818B109E03E
:101310000120BDE8F08784F8408051486063204692
:1013200000F0A6F8022684F841602068C16940F602
:10133000BF77B943C1612068066260694FF40079E4
:1013400002282FD0E06870B12025A068202800D89E
:101350006D00012000F070F9216949451FD1E16855
:1013600019B1A90002E01025EFE7E900B0FBF1F0A8
:1013700000EB800061694000B0FBF1F0401D0A21E4
:10138000B0FBF1F000F00101401A40080902821E92
:10139000FE2A09D3606C40F010006064B8E7B0FB2F
:1013A000F5F0E5E7022000212269084302432068A6
:1013B0000262D4E901010843A269E16811430843CC
:1013C0002168CA69BA43104340F40060C861206ACA
:1013D00001283AD12348606323482168234A4FF00B
:1013E0004023814201D1114600E01946C96921EA32
:1013F000070101D1154600E01D46E96121688142DF
:1014000001D1114600E019460E622568854201D1DE
:10141000114600E01946C9698EB2616849451BD082
:10142000D1B100212789B4F80CC047EA0C07B4F801
:1014300018C04CEA010C47EA0C07B9B2314341F439
:101440000061854200D01A46D161C4F84480012071
:1014500084F8410000205CE74FF48071E2E700006F
:101460004D240008051100080038004000340040F9
:1014700070B586B0044614216846FEF7EBFE1C49A1
:101480002068884232D11B480024016841F40041A1
:101490000160006800F400400590164810380168AB
:1014A00041F001010160016801F00101059101684D
:1014B00041F0040101600068022500F0040005907D
:1014C00010200090CDE901540626CDE90346694677
:1014D0000948FFF731FA4FF4A4500090CDE90154C8
:1014E000CDE9034669460548FFF726FA06B070BD08
:1014F000003C00404038024000000240000802402A
:1015000070477047024881680278114481607047D3
:10151000080000200B4810B5016841F4007101601B
:10152000016841F480610160016841F480710160EB
:10153000032000F06FF8002000F006F800F024F817
:10154000002010BD003C024070B50D4D04464FF424
:101550007A712878B1FBF0F00A490968B1FBF0F024
:1015600000F032FC48B9102C07D200222146501E50
:1015700000F030F800206C6070BD012070BD0000EC
:1015800008000020140000200A4808B5016841F452
:1015900080410160006800F4804000900548001F11
:1015A000016841F080510160006800F080500090B7
:1015B00008BD000044380240002809DB00F01F028B
:1015C000012191404009800000F1E020C0F80011A5
:1015D00070470000F0B40E4B1B680C46C3F30223A7
:1015E000C3F10705042D00D90425191D072901D2CF
:1015F000002300E0DB1E012606FA05F1491E21400A
:1016000099409E40761E16403143F0BC02F0E4BD86
:101610000CED00E0064900F0070208684FF6FF03F2
:10162000184040EA0220034A104308607047000057
:101630000CED00E00000FA0501460020012907D169
:101640001049096811F4000103D0012900D10E48A6
:1016500070470C48001F01680068490200F03F0015
:1016600001D50A4900E00A49064AB1FBF0F07C3294
:101670001168C1F3881141431068C0F30270B1FBD7
:10168000F0F07047083802400080BB0000127A007A
:101690000024F4002DE9F843054600684FF00109E5
:1016A000C1074FF0000601D1400727D5DFF80C81B4
:1016B000C8F86860FFF722FA0746414C05E000BF12
:1016C000FFF71CFAC01B022857D820680001F7D486
:1016D00068688101287A41EA0070394984310860DC
:1016E000C8F86890FFF70AFA074604E0FFF706FA21
:1016F000C01B022841D820680001F7D52878800750
:1017000052D52F484030016841F080510160006897
:101710002C4C00F080500090206840F480702060D5
:10172000FFF7ECF9074604E0FFF7E8F9C01B0228D1
:1017300023D82068C005F7D5214C7034206810F4F8
:10174000407020D0A98901F4407181421BD02068EB
:101750001D4920F44070C1F800900E6020602068A0
:10176000C00710D0FFF7CAF9064641F2883707E0F4
:10177000FFF7C4F9801BB84202D90320BDE8F88303
:1017800020688007F4D5E9680D48C1F301220830CC
:10179000032A0BD0016821F4F81101602068A9899F
:1017A000C1F30B01084320600020E7E70268074B04
:1017B00022F4F81219400A430260EFE700004742A2
:1017C0000038024000700040400E4742FFFCFF0F0F
:1017D0002DE9F0470E46050065D0DFF81481D8F8F2
:1017E0000000F7B200F00F00B04207D288F8007096
:1017F000D8F8000000F00F00B04254D128683D4CEA
:10180000810712D5400703D5206840F4E0502060DE
:101810002878000703D5206840F4604020602068E5
:10182000A96820F0F000084320602878C0072DD078
:10183000304968680839012812D0022813D00328DB
:1018400011D00968890700292DDA216821F00301E8
:1018500001432160FFF752F9814641F2883A0EE0D8
:1018600009688903EFE709688901ECE7FFF746F9A2
:10187000A0EB0901514502D90320BDE8F08720689B
:10188000696800F00C00B0EB810FEFD1D8F80010C0
:10189000404601F00F01B14207D90770006800F01F
:1018A0000F00B04201D00120E7E72878400705D5B6
:1018B0002068E96820F4E050084320602878000799
:1018C00006D52068296920F4604040EAC100206004
:1018D00000F028F82168084AC1F30311515CC840A0
:1018E0000649086006480068FFF72EFE0020C4E79E
:1018F000003C0240083802407848000814000020EC
:101900000C0000200448054900680968044AC1F336
:101910008221515CC8407047140000200838024002
:1019200088480008154810B5006810F00C021448EB
:1019300013D04110042A0FD0082A0ED10F4C241FB7
:101940002268236802F03F025B0207D52068C0F3DB
:101950008810A0FB010106E0084610BD2168C1F314
:101960008811A1FB00010023FEF72AFC2168C1F3C6
:101970000141491C4900B0FBF1F010BD083802409C
:101980000024F4002DE9F84F040076D02078DFF829
:1019900038A3CE4DC00749D0DAF800105046C1F345
:1019A0008101012908D00068C0F3810002280AD112
:1019B000281D0068400206D52868800336D5606877
:1019C0000028E2D032E06068B0F5803F10D0B0F57A
:1019D000A02F286810D020F480302860286820F4D8
:1019E000802028606068A0B1FFF788F806460CE008
:1019F000286840F48030F4E740F480202860F7E75E
:101A0000FFF77CF8801B642873D828688003F7D51B
:101A10000CE0FFF773F8064605E000BFFFF76EF82D
:101A2000801B6428F0D828688003F7D42078DFF87A
:101A3000A08280074FF000093ED5DAF8001050462A
:101A400011F00C0F09D00068C0F3810002280BD1FF
:101A50009D48001F0068400206D42868800715D5FD
:101A6000E068012809D111E0E068B8B10120C8F8A8
:101A70000000FFF743F8064605E020E1FFF73EF8D7
:101A8000801B0228C0D828688007F7D528682169FC
:101A900020F0F80040EAC10028600DE0C8F800908E
:101AA000FFF72CF8064604E0FFF728F8801B022811
:101AB0001FD828688007F7D42078000722D5824EE7
:101AC000844861696C3671B101210160FFF716F835
:101AD000074604E0FFF712F8C01B022809D8306857
:101AE0008007F7D50EE0C0F80090FFF707F807462B
:101AF00005E082E0FFF702F8C01B02287DD83068BD
:101B00008007F7D42078400768D5DFF8BCB10027FC
:101B10000BF1380BDBF80000C0000BD4DBF8001031
:101B200041F08051CBF80010DBF80000012700F0F5
:101B300080500090684E3068C00510D4306840F482
:101B400080703060FEF7DAFF009005E0FEF7D6FF08
:101B50000099401A022850D83068C005F6D55A4E70
:101B6000A068683601280FD00528306810D020F012
:101B700001003060306820F004003060A068B8B127
:101B8000FEF7BCFF00900FE0306840F00100F4E782
:101B900040F004003060F7E7FEF7B0FF0099411A0B
:101BA00041F28830814266D830688007F4D50EE073
:101BB000FEF7A4FF009007E0FEF7A0FF0099411A8E
:101BC00041F28830814256D830688007F4D42FB172
:101BD000DBF8001021F08051CBF80010A069D0B3E1
:101BE000DAF800205146C2F38102022A4AD00228C4
:101BF000484607D0C8F8600000E03CE0FEF77EFFF2
:101C000004463BE04746C8F86000FEF777FF06460B
:101C100005E000BFFEF772FF801B02282BD8286862
:101C20008001F7D4D4E907010843A16A2B4A490887
:101C300002EB0141626A41EA8211084394F82C10D8
:101C400040EA01612048001F016001203866FEF76C
:101C500055FF044605E034E0FEF750FF001B022864
:101C600009D828688001F7D52BE000BFFEF746FFB2
:101C7000001B022802D90320BDE8F88F28688001E4
:101C8000F4D41EE00128F7D00868E26900F480016E
:101C9000914214D1226A00F03F0191420FD147F6E0
:101CA000C071626A0140914209D1A26A00F44031D8
:101CB000914204D1E16A00F07060884201D00120B5
:101CC000DAE70020D8E70000083802400038024078
:101CD00000004742800E4742007000400000FFFFB6
:101CE00070B5040005D00025A56294F8510010B12C
:101CF00006E0012070BD84F85050204600F030F816
:101D0000022084F851002068016821F04001016040
:101D1000D4E901010843D4E903121143084361697E
:101D20000843218B01F400710843E1690843216AEB
:101D30000843A16A084321680860A069042101EAF8
:101D40001040616A0843216848602068C16921F435
:101D50000061C1616565012084F85100002070BDFB
:101D600010B586B0044614216846FEF773FA13498D
:101D70002068884220D112480021026842F4805233
:101D80000260006800F4805005900D481438026825
:101D900042F001020260006800F001000590E020BE
:101DA00000900220CDE9010103200390052004905A
:101DB00069460448FEF7C0FD06B010BD0030014082
:101DC000443802400000024010B5401EB0F1807F50
:101DD00001D3012010BD4FF0E02460610F21601796
:101DE00002F0FAF90020A06107202061002010BD58
:101DF0002DE9F05F074600680E4600EB4114D4F869
:101E000008054FF0040B420701EB86004FF0050A6E
:101E10004FF0100807EBC00508D5C4F808B5D4F892
:101E20000C0540F00200C4F80C0530E0D4F80805B9
:101E3000800601D5202028E0D4F808054FF00809D5
:101E400000070FD5D4F80C0540F00200C4F80C05CB
:101E500085F85DA0C4F80885C4F80895386801F0D5
:101E600006FF14E0D4F80805400510D5D4F80C0599
:101E700040F00200C4F80C05386801F0F8FEC4F820
:101E8000088585F85D904FF48060C4F80805D4F8A3
:101E9000080580050ED5D4F80C0540F00200C4F802
:101EA0000C05314604F5A164386801F0E0FE4FF4FA
:101EB000007090E0D4F808054FF00001C0074FF023
:101EC000010237D0386930B1A86CD4F81035C3F3AB
:101ED0001203C01AE86485F85D20A965C4F80825D6
:101EE00095F83F0020B1022802D003280FD01AE055
:101EF000D4F80C0540F00200C4F80C05314604F596
:101F0000A164386801F0B3FEC4F800800BE0D4F897
:101F1000000540F00050C4F8000585F85C2031460B
:101F20003846FEF757FE15F8500F80F00100287074
:101F3000BDE8F09FD4F80805800735D5D4F80C0526
:101F400020F00200C4F80C0595F85D00022301287A
:101F500008D0052809D006280AD0082808D0032868
:101F60001FD015E085F85C2012E085F85CA00FE03A
:101F7000A86D401CA865032813D9A96585F85CB035
:101F8000D4F8000520F0804040F00040C4F800057F
:101F9000C4F8083595F85C2031463846FEF71AFE3D
:101FA000C6E785F85C30EBE7D4F80805000614D5E1
:101FB000D4F80C0540F00200C4F80C05A86D3146B9
:101FC000401CA865062085F85D0004F5A16438680A
:101FD00001F04DFE80202060AAE7D4F80805C00675
:101FE000A6D595F83F00032803D020B1022802D0DF
:101FF00011E0A96505E0A965386960B9032085F895
:102000005D00D4F80C0540F00200C4F80C05314620
:10201000386801F02CFEC4F8088589E72DE9F047FF
:10202000026802EB4114D4F808254FF0040352076C
:1020300009D5C4F80835D4F80C0540F00200C4F8FE
:102040000C05BDE8F087D4F8082501EB810596065C
:102050004FF0000200EBC5054FF0020C15D5202310
:10206000C4F8083595F83D30012BEAD185F83D20BC
:1020700085F85CC0D4F80C2542F00202C4F80C25A7
:102080000068BDE8F04701F0F2BDD4F808657706B6
:102090004FF0010611D585F85D3085F83D60AA65E1
:1020A000D4F80C2542F00202C4F80C25006804F5AF
:1020B000A16401F0DCFD402010E0D4F80875BF05F4
:1020C0000ED5D4F80C2542F00202C4F80C250068A5
:1020D00004F5A16401F0CBFD4FF400702060B0E77F
:1020E000D4F80875FF070FD0AA65D4F80C2542F084
:1020F0000202C4F80C25006804F5A16401F0B7FDE4
:10210000266085F85D609CE7D4F808754FF00509F6
:102110005FEA07784FF008070DD5C4F80875D4F8C2
:102120000C2542F00202C4F80C25006801F09FFD66
:1021300085F85D9085E7D4F808854FF0100A5FEACE
:10214000C86818D5AA65032285F85D2095F83D205A
:1021500022B995F83C200AB985F83D60D4F80C25E1
:1021600042F00202C4F80C25006804F5A16401F0F5
:102170007EFD5046B2E7D4F808855FEA08680FD5BF
:10218000D4F80C2542F00202C4F80C25006804F5CE
:10219000A16401F06CFD062085F85D0080209DE7BC
:1021A000D4F808855FEA485812D5D4F80C2542F0D7
:1021B0000202C4F80C25006804F5A16401F057FD83
:1021C000C4F800A04FF48060206085F85D7038E7A7
:1021D000D4F80875BF0796D5D4F80C7527F0020718
:1021E000C4F80C7595F85D70012F0AD0032F17D035
:1021F000042F15D0052F16D0062F17D0082F15D075
:1022000027E085F85C6095F83F20022A01D0032A78
:102210001FD195F8512082F0010285F8512018E075
:1022200085F85CC015E085F85C9012E0AE6D761C18
:10223000AE65032E03D9AA6585F85C3001E085F808
:102240005CC0D4F8002522F0804242F00042C4F87D
:102250000025C4F808C595F85C20FEF7BBFCF0E645
:102260007CB504680546D4F840040190D4F84004D5
:1022700020F02E000090019880070DD50198C0072E
:1022800006D0A06920F00051A1612846FEF73CFC71
:10229000009840F0020000900198000732D50098A5
:1022A00040F008000090019840071DD5A869022859
:1022B00003D0E86801280CD00FE00198C0F341403A
:1022C0000228286803D0012101F0C2FE05E00221A6
:1022D000FAE74EF66020C4F804042846FEF7E4FD51
:1022E0002846FEF711FC0DE02846FEF7D9FDD4F88C
:1022F000400420F02E00C4F840042868816941F0B1
:102300000051816101988006009802D540F02000BC
:102310000090C4F840047CBD2DE9F04102460068FD
:102320000646016AC1F3434301F00F07C1F30A14E3
:10233000022B25D1002C23D007EB870102EBC1052E
:10234000696C00291CD0224601F0A1FE686C204473
:102350006864E86C2044E86406EB4710D0F8101578
:10236000084A11420CD0D0F8001521F0804141F00C
:102370000041C0F8001515F8500F80F001002870DA
:10238000BDE8F0810000F81FFEE7000070B51549B8
:102390000268154B4FF040248A4201D11A4600E0F2
:1023A0002246D568C26A961CC6621580428E521EAD
:1023B0004286428E002A14D102688A4201D119460F
:1023C00000E02146496821F0600100D023465960B1
:1023D000418D002905D14FF0010180F84110FEF731
:1023E0008BFF70BD003800400034004070B5416A7A
:1023F000144B8A1C426205680988134A4FF0402436
:102400009D4201D1154600E02546E960418D491EF7
:102410004185418D002914D10168994201D11146AD
:1024200000E02146496821F0A00100D02246516019
:10243000418E002905D14FF0010180F84110FEF7CF
:102440005BFF70BD00380040003400407CB501687F
:1024500004468868009094F841000125042834D18E
:102460000098C00718D04868C043400614D4C96813
:102470002046E26A1180E16A891CE162618E491E90
:102480006186618E41B901684A6822F060024A6043
:1024900080F84150FFF734F80098400615D52068C1
:1024A0004168C943890610D4416821F06001416048
:1024B0002068C1688068019084F84150606C40F0E9
:1024C000020060642046FEF718FF94F841000328DC
:1024D00034D10098800719D521684868C0430006A8
:1024E00014D4626A20461288CA60616A891C6162DB
:1024F000618D491E6185618D41B901684A6822F08C
:10250000A0024A6080F84150FEF7FBFF00980007E8
:1025100014D520684168C94389060FD4416821F069
:10252000A001416020688068009084F84150606C90
:1025300040F0040060642046FEF7DFFE7CBD000032
:102540002DE9F0410024074E25464FF4FC77012188
:10255000002000F05DF93555641CBC42F7DBBDE896
:10256000F08100004000002070B554281CD20029E2
:102570001ADB302918DACC1701EB5474E510C5EBDF
:10258000C50505EB450500EB850024F007040D1B90
:1025900000230121054CA94004E0C618A55D0D43A8
:1025A000A5555B1C9342F8DB70BD00004000002085
:1025B000F0B517460D46064654280ED2002D0CDB0A
:1025C000302D0ADA002406E02819C1B2F0B2012247
:1025D00000F0F8F8641CBC42F6DDF0BD10B50C4606
:1025E00040F08000002100F013F944F04000BDE805
:1025F0001040002100F00CB910B5154C0022A18844
:102600002068FEF775FAA18801222068FEF770FAAB
:102610000021212000F0FCF80021B82000F0F8F89B
:102620000021042000F0F4F80021142000F0F0F85C
:102630000021202000F0ECF800210C2000F0E8F848
:10264000FFF77EFFA4F5FE71002081F8F80110BDB0
:102650003C02002010B50B46044611461846FFF711
:10266000BDFF02E0641C00F005F820780028F9D1D5
:1026700010BD000070B50D490B4E00EB400000246A
:1026800001EB400596F8F801012805EB040010F86D
:10269000C00C01D1C043C0B2012100F0B9F8641CE4
:1026A000062CEFDB70BD000040000020384600081B
:1026B0002DE9F0479946164680460024B9EBC40F31
:1026C0001FDBE0B240F04000002100F0A1F848F02C
:1026D0008000002100F09CF8C4EBC400454600EBEC
:1026E0004007DFF824A007E005EB87011AF8010096
:1026F000012100F08DF86D1CB542F5DD641C062C3F
:10270000DCDBBDE8F0870000400000202DE9F0414F
:1027100040218020FFF762FF0A4F0025C5EBC5006E
:10272000002400EB400600BF04EB86000121385C6A
:1027300000F06EF8641C542CF6DB6D1C062DEDDBEE
:10274000BDE8F081400000202DE9F0410025104C4B
:1027500007460126C5F1070106FA01F0384201D00B
:10276000012200E00022A18BA069FEF7C1F9A18C33
:102770000122206AFEF7BCF9A18C0022206AFEF734
:10278000B7F96D1CEDB2082DE4D3BDE8F08100006F
:102790003C020020014A9060918170473C02002079
:1027A000014A1062918470473C020020014A106186
:1027B000918270473C020020014A906191837047EA
:1027C0003C02002010B5542800D35320302900D3F8
:1027D0002F210123002A4FEAD102C2EBC202084C8A
:1027E00002EB420200EB820001F00701225C03FAD7
:1027F00001F301D01A4300E09A43225410BD0000B7
:1028000040000020014A1060918070473C02002087
:1028100070B50C4C0A000546A18A206900D001223F
:10282000FEF766F9A1890022A068FEF761F9284643
:10283000FFF78AFFA189A068BDE870400122FEF77A
:1028400057B900003C0200201FB500211648009136
:1028500001910291134A039102604FF48032426069
:10286000520282600161017680F820100F4AC0E9AF
:102870000A210124C461C16080F830104161FDF774
:10288000CDFF08B1FDF770FE07200094CDE90140AF
:1028900069460548FDF77CFE002801D0FDF764FE7F
:1028A0001FBD000000200140640200200100000F55
:1028B0007FB50024164800940194029413490394B0
:1028C00001604FF48031416049020461816001255B
:1028D000057680F820400F49C0E90A14C561C4603C
:1028E00080F830404561FDF799FF08B1FDF73CFEE7
:1028F0000220CDE90005694602940548FDF748FE2F
:10290000002801D0FDF730FE7FBD0000002101400E
:10291000AC0200200100000F20B10022012102487A
:10292000FEF7E6B80122F9E7000802402DE9F04F72
:1029300087B014216846FDF78DFC4F4800240168DC
:1029400041F010010160016801F01001059101687A
:1029500041F004010160016801F004010591016882
:1029600041F080010160016801F08001059101687A
:1029700041F001010160016801F001010591016868
:1029800041F002010160016801F002010591016856
:1029900041F008010160006840F6887500F0080009
:1029A0000590002229463548FEF7A2F8DFF8D080CE
:1029B000002201214046FEF79BF8DFF8C8B04FF235
:1029C0001009002249465846FEF792F80095012565
:1029D000CDE90154694629480394FDF7ADFF009500
:1029E000CDE90154694640460394FDF7A5FF082050
:1029F00000900226CDE901640527CDE90347694629
:102A00004046FDF799FFDFF880800095CDE901840D
:102A100069461E48FDF790FF0420CDE90004DFF869
:102A200070A0694650460294FDF786FFA802009008
:102A3000CDE90164CDE9034769465046FDF77CFFC7
:102A4000CDF80090CDE90154694658460394FDF74E
:102A500073FF2020CDE90004694658460294FDF733
:102A60006BFF0096CDE9018469460448FDF764FFD9
:102A700007B0BDE8F08F000030380240001002407F
:102A800000080240000C024000001110000002404B
:102A9000000402400D4810B50B4901600C4941602B
:102AA00000214FF480428160C0E9031241618161DD
:102AB000C1610162FEF72CFA002803D0BDE8104086
:102AC000FDF752BD10BD000000540040F40200208C
:102AD000A08601000B490C4810B54A15C0E9001248
:102AE00000218160C0E90312084AC0E90521C161E3
:102AF0000162FEF703FC002803D0BDE81040FDF79B
:102B000033BD10BD003C00404803002000770100A9
:102B1000104810B50E4901604FF4827141600021E8
:102B20008160C1604FF400720161C0E9051210229A
:102B3000C0E90721416281620A21C162FFF7D0F832
:102B4000002803D0BDE81040FDF70EBD10BD000009
:102B5000003001409003002010B501220B490C48C1
:102B600000F021FD08B1FDF7FFFC0A49084800F01C
:102B700066FF08B1FDF7F8FC054800F0A3FF002848
:102B800003D0BDE81040FDF7EFBC10BDD93A0008F6
:102B9000E803002018000020014800F080BE00007B
:102BA000E8030020FEE770470148FEF75BB800002D
:102BB000B4070020704770472DE9F84306460878AF
:102BC0000C46800001F002FD05462078800001F0EF
:102BD000FDFC002201210BE0636801EB420713F8C2
:102BE000123045F822306368DB5D40F82230521C19
:102BF00023789342F0DC002202234FF0030910E017
:102C0000D4F804C003EB420815F822700CF80870E1
:102C1000D4F8048010F8227009EB420C521C08F81A
:102C20000C7027789742EBDC62681778009753782E
:102C3000009394F801C0BCF1000F09D0BCF1010F62
:102C400008D0BCF1020F07D0BCF1030F09D106E098
:102C50005B1C02E07F1C03E05B1E537001E07F1EE3
:102C6000177062681378132B01D1122313706268F6
:102C70005378282B01D12723537000220CE000BF8A
:102C8000636801EB4207DF5D13F81230521C03EB5F
:102C9000830306EBC303F95423789342F0DC2778CF
:102CA000636801EB470C002213F80CC013F81730CF
:102CB00003EB830306EBC3030CF803202678636859
:102CC00003F816206368247801EB44015A5401F09C
:102CD000F7FB2846BDE8F84301F0F2BBFEF712BC53
:102CE00070B596B030216846FDF7B4FA14210CA8EF
:102CF000FDF7B0FA00252548119512951395149506
:102D0000016841F080510160006800F0805015902A
:102D10001F48016841F4804101600068012600F409
:102D2000804015903004CDE9006002248001CDE997
:102D30000640082008904FF4A870CDE90904072048
:102D40000B906846FEF71EFE08B1FDF70DFC0CA9BE
:102D50000F2081E831004FF4A0500F904FF48050C5
:102D6000109005210CA8FEF733FD08B1FDF7FCFB20
:102D7000C020CDE91204119611A8FEF78BFC0028A3
:102D800001D0FDF7F1FB16B070BD000040380240E5
:102D9000007000400548016841F47001016003497A
:102DA0004FF00060803908607047000088ED00E057
:102DB00010B500224FF6FF7300EB8204B4F8804395
:102DC000240409D49A4205D000EB820041F400416A
:102DD000C0F88013D0B210BD521CD2B20B2AEBD374
:102DE0001A46F7E77FB51C46012501AE0023009582
:102DF00086E80E0002232A46214600F0C7FC04B0F4
:102E0000002070BD7FB51D4690F81D33089C03B1AE
:102E100000240123CDE90031CDE902240223002260
:102E2000294600F0B3FC04B0002070BD70B5044624
:102E3000D0F87803C16920464031FDF79DFB0500BD
:102E400004D1D4F8C823022120469047284670BDFB
:102E500070B50546D0F878030026C469217839B1E9
:102E6000284600F01FF92178284600F0A3F92670C3
:102E7000217B39B1284600F015F9217B284600F066
:102E800099F92673617B39B1284600F00BF9617B13
:102E9000284600F08FF96673D5F87803C06920B131
:102EA00001F00EFBD5F87803C661002070BDFEB5B9
:102EB0000227054601233A46394600F059F90646ED
:102EC000FF287ED00146284600F0C7FD502001F0C3
:102ED0007DFBD5F878130446C86106EB860000EB4D
:102EE000C60005EB400090F84A130A0603D561704E
:102EF000B0F84C03608161782846FFF759FF2070D5
:102F0000014695F81D03638903228DE80D0095F8AD
:102F10001C336278284600F04AFC217800222846BB
:102F200000F012FC00231A460A21284600F020F97E
:102F3000FF2854D000EB800101EBC00005EB4000FE
:102F400090F84A130A0604D5E173B0F84C13618374
:102F500003E0A173B0F84C13218390F852130A06D2
:102F600004D5E173B0F85403608303E0A173B0F8B3
:102F700054032083A17B2846FFF71AFF6073E17B8F
:102F80002846FFF715FF2073208B95F81D130226A6
:102F90000091CDE9016095F81C33A27B617B284646
:102FA00000F005FC608B95F81D130091CDE90160E0
:102FB00095F81C33E27B217B284600F0F8FB0020CB
:102FC00000E00CE084F84C000246617B284600F0EB
:102FD000BBFB217B0022284600F0B6FB00273846C9
:102FE000FEBD70472DE9F0410546D0F87803012772
:102FF0000026C4694FF0040894F84C0005284AD212
:10300000DFE800F00305163B4200002743E02122E1
:10301000A16C2A7420226A746E82AE82072228462E
:10302000EA8200F062F848B9022084F84C0032E0ED
:1030300004F140012846FDF79FFA20B101282AD06B
:1030400084F84C8027E084F84C60A06C94F844101D
:10305000027991421FD194F84610827991421AD197
:1030600094F845104279914215D1216C0068814253
:1030700011D12846FFF7B5FF0DE02846FDF714FAF9
:103080002846FDF7DDF906E00021284600F00FF89C
:1030900008B984F84C603846BDE8F08170470020DC
:1030A0007047704710B500F096FA002010BD827886
:1030B000012A07D1022202740122427400224282B4
:1030C0008182C2820022114600F00FB87FB51C46F3
:1030D000012501AE0023009586E80E002A46214610
:1030E00000F054FB04B0002070BD70B50446012010
:1030F000A3780546012B0CD0022B09D1204600F005
:1031000014F9002158B1032809D0022800D1A57074
:1031100070BDA160A28125760221A17070BDA5704D
:10312000217670BD7FB51D4690F81D33089C03B114
:1031300000240123CDE90031CDE9022400231A4601
:10314000294600F023FB04B0002070BD1FB500230A
:103150001446CDE900310822CDE902231A46214662
:1031600000F014FB04B0002010BDFDF7D3BB00003D
:1031700070B50546002005F54D7500BF00EB8004D5
:1031800004EBC00405EB4404E67B0A348E4201D014
:10319000FF2909D1A679964201D0FF2A04D1E4790A
:1031A0009C4206D0FF2B04D0401CC0B20228E5D3BD
:1031B000FF2070BD0B2907D200EB8100B0F880130F
:1031C000C1F30E01C0F880130020704730B4857839
:1031D000029C012D0FD141F0800101740621417440
:1031E00003214282B1EB122F02D140F2094100E0EB
:1031F00000218182C482224630BC1946FFF775BF88
:103200000A8803781A440A80017808447047F8B5A0
:103210000E4600F11C05009104462B464FF4007247
:103220000021FFF7D3FF070005D13246294604F5F8
:103230004D7000F0C6FA3846F8BD38B50D4600911D
:10324000044600F58E734FF480720021FFF7BEFF35
:10325000002839D194F81C1184F8221394F81D1118
:1032600084F82313B4F81E11A4F8241394F8201141
:1032700084F8261394F8211184F8271394F8221166
:1032800084F8281394F8231184F82913082D1BD9E6
:10329000B4F82411A4F82A13B4F82611A4F82C13B6
:1032A000B4F82811A4F82E1394F82A1184F83013D6
:1032B00094F82B1184F8311394F82C1184F83213FC
:1032C00094F82D1184F8331338BDF8B51C46164612
:1032D000009341F4407200F58E731D460021FFF704
:1032E00075FF002814D16978032911D129788A1E25
:1032F000A24200D814460021A2B2AD1C04E06B5CCF
:10330000891C06F8013B89B29142F8D30021317043
:10331000F8BD01004FF0000004D0012901D00229BE
:1033200001D002207047012070472DE9F84F044674
:103330000125007E0B262F464FF009084FF00709A4
:103340004FF0050B4FF00D0A0C2819D2DFE800F002
:10335000AF060E26313D49616C7D8A9B627904F18E
:1033600010012046FFF7F2FE022012E061792046AC
:1033700000F08DF9012804D0042872D0022870D002
:1033800095E0207CE18A00F0800021B180283BD1CB
:10339000032020768BE0802814D02FE0D4F8BC03E3
:1033A000E0812379A2892046A168FFF78FFE0420DF
:1033B000EFE72179204600F06AF9012802D00528BC
:1033C00041D057E084F8188071E000976379A289B2
:1033D0002046A168FFF7A6FED4F8BC03E0810620D2
:1033E000D7E76179204600F052F9012806D0052878
:1033F00007D0022808D0042809D058E084F8189093
:1034000055E00C2020761EE084F818B04FE02676B8
:103410004CE00022237911462046FFF757FED4F8EE
:10342000BC03E0810820B4E72179204600F02FF9A1
:10343000012804D0042824D0052804D037E084F8DB
:1034400018A0002533E0032531E0009700226379BE
:1034500011462046FFF766FED4F8BC03E0810A203F
:1034600097E70EE06179204600F011F9012804D0B9
:103470000228A7D0042804D019E0002584F818A059
:1034800015E0267613E0607E401CC0B2607602280C
:1034900005D8204600F071F92776A77007E0D4F828
:1034A000C823062120469047002060760225284642
:1034B000BDE8F88FFEB50446012640780025374662
:1034C00004F58E7208286CD2DFE800F004161D4364
:1034D0004A53576208212046FFF7AFFE002860D10B
:1034E00094F82903A071677094F81D130091CDE939
:1034F000015094F81C3319E012212046FFF79DFE7D
:1035000030BB022033E00121204600F0B1FAF8B9C7
:103510000220FFF72AFE84F81C7303206070A07954
:1035200094F81D13CDE900153B46029021798022C5
:10353000204600F03CF9A07994F81D130091CDE9E4
:10354000015094F81C3361790022204600F02FF9D5
:1035500027E009212046FFF75AFE10BB042006E0B1
:10356000B4F836132046FFF752FED0B9052060703C
:1035700017E094F83013062502E094F8311307257C
:1035800021B1FF232046FFF7A0FE50B9657008E087
:1035900094F8321321B1FF232046FFF796FE00B9BD
:1035A00000263046FEBD70B50D46040011D084F8EB
:1035B000C0230020C4F87803C4F87C032046FCF73D
:1035C000ADFF0DB1C4F8C853204600F073F80020D9
:1035D00070BD022070BD10B5D0F8C403FDF7AFFA7E
:1035E000BDE81040FFF795BE10B5017821B190F805
:1035F0001F13012909D00AE0012180F81E13D0F819
:10360000C82322B10421904701E00221017000206B
:1036100010BD10B5044600F0B0F821792046FFF740
:10362000C9FD61792046FFF7C5FD002084F81E031F
:10363000D4F8C82312B1052120469047204600F057
:1036400093F803202070002010BD10B590F8C0033F
:10365000012802D10846FFF75FF9C820FDF75AF9A3
:10366000002010BDD0F8C403FDF763BA10B50124E3
:10367000D0F8C403FDF753FA20B1012805D0022881
:1036800003D101E0002400E00224204610BDD0F860
:10369000C403FDF747BAD0F8BC13491CC0F8BC13EB
:1036A00001780B2905D1D0F87813002901D0896958
:1036B0000847704710B5044690F8C00301281CD194
:1036C0000F484FF0A0410022C0F8C042C4F8C40324
:1036D0000160082181600121C0E903120221C0E9D3
:1036E0000612FDF758FB08B1FCF73EFF0448FDF752
:1036F00013FA0146204600F024F8002010BD000017
:10370000B4070020FEB508AF97E870008DE87000A0
:10371000D0F8C403FDF725FABDE8FE40FFF7F9BD78
:10372000002180F81F137047012180F81F13704794
:1037300010B5D0F8C403FDF7BBFBBDE81040FFF7A0
:10374000E8BDC0F8BC137047D0F8C40301EB810199
:1037500000EBC10090F83B1011B180F8502001E05F
:1037600080F851200020704710B5D0F8C403FDF751
:10377000A6FBBDE81040FFF7CCBD10B5D0F8C403E0
:10378000FDF7B3FBBDE81040FFF7C3BD2DE9FF41D6
:103790000DF1280898E8F0008DE8F000D0F8C40397
:1037A000FDF719FA04B0BDE8F041FFF7B2BDFEB570
:1037B00008AF97E870008DE87000FFF7A3FF0020C6
:1037C000FEBD2DE9F84105460B782B704B786B70E8
:1037D0004B886B800B792B714B796B718B79AB714B
:1037E000CB790846EB710027097A2972092A54D946
:1037F0000921ADF800104BE06946FFF701FD417863
:10380000042943D107EB870101EBC70105EB410810
:10381000017888F80A10417888F80B10817888F8C8
:103820000C10C17888F80D10017988F80E104179D4
:1038300088F80F10817988F81010C17908F10A040E
:1038400088F81110017A2172002615E06946FFF709
:10385000D7FC417805290FD108EBC60102780A751B
:1038600042784A7582788A75C278CA7582880A83D6
:103870008279761C8A76F6B22179B14204D96A88B7
:10388000BDF800108A42E1D87F1CFFB2022F04D29B
:103890006988BDF800209142AED8BDE8F881FEB538
:1038A000022204468DF8002094F81F13002031B93D
:1038B000237823B12378032B01D0032323702378AB
:1038C000002508270D260C2B13D2DFE803F0061382
:1038D00017ABB64694555C6471A494F81E03002897
:1038E00007D001202070C820FFF73FFC2046FFF7DB
:1038F0001FFFA2E0012900D122709EE06420FFF7A3
:1039000034FC2046FFF7B2FE84F81D03052020702A
:1039100000212046FFF74CFA607180212046FFF716
:1039200047FA20710146A07994F81D230092CDE951
:10393000015094F81C3380222046FFF738FFA0790D
:1039400094F81D130091CDE9015094F81C3361796E
:1039500000222046FFF72BFF6FE02046FFF7AAFD6D
:1039600000286AD184F8205394F83303012801D049
:1039700007204CE0277060E0D4F8C823D2B30121BF
:1039800020469047F6E794F83913204600F07EF879
:1039900080BB09203BE094F83B034FF00A0580060A
:1039A00004D50121204600F07FF818BB257044E0C3
:1039B000D4F87C13F1B1C4F8785394F8432304EBA2
:1039C0008001D1F874130B79934201D1C4F87813B4
:1039D000401C10F0FF00F2D0D4F87803C8B1816821
:1039E00020468847A8B906202070D4F8C8230321B0
:1039F0002046904721E0D4F8780350B10169204671
:103A000088478DF800009DF80000B0B90B202070A9
:103A100013E0267011E0D4F8780370B141692046B4
:103A200088470AE02046FCF779FDD4F8780320B1F6
:103A3000C16820468847C4F878530020FEBD0022A4
:103A400011B1D0F87C3313B1022210467047012324
:103A5000C0F87C33C0F87413F7E70246002092F8F0
:103A600038338B4202D982F8201370470220704706
:103A70008278012A06D10022027405234374418210
:103A80008282C28200221146FFF72FBB8278012A70
:103A900006D1002202740923437441828282C282C9
:103AA00000221146FFF721BB8278012A06D10022AD
:103AB00002740323437441828282C282002211462F
:103AC000FFF713BB10B50446FFF74EFE0121204659
:103AD000FFF7BBFD002010BD01290AD005480229CF
:103AE00006D0042903D0052903D1032100E00121D8
:103AF000017070470000002070B5044606990A9EC8
:103B0000049D0D98012916D0E06840F04000E06067
:103B1000204600F02BF8A16B1EB321F48031A16385
:103B2000012D07D1A16841F00601A160A16841F013
:103B30002001A16070BDA16B21F48031A163E16817
:103B4000094A1140E160E16821F44011E160012877
:103B500003D1E06840F48010E060204600F006F8F1
:103B6000DEE741F48031DAE7BFFFBDFF01220C49F7
:103B700002E0521C8A420BD80369002BF9DA026971
:103B800042F001020261012204E0521C8A4201D982
:103B9000032070470369DB07F7D10020704700005E
:103BA000400D0300816821F0010181600020704711
:103BB00000EB4110064AC0F81025D0F8001521F09E
:103BC000804141F00041C0F800150020704700001E
:103BD0000000088008B5D0F8402422F02E020092A0
:103BE000D20405D4012909D1009941F4805103E0A0
:103BF00021B9009921F48051C0F84014002008BD7B
:103C0000816841F00101816000207047002110228D
:103C10000261054A491C914201D90320704703699A
:103C2000DB06F7D400207047400D0300002220235C
:103C300043EA811101610549521C8A4201D90320DE
:103C4000704703699B06F7D400207047400D0300BE
:103C5000D0F8080480B2704708B5D0F8400400904E
:103C6000C0F3414008BD406900F00100704700EB1F
:103C70004111D1F800254FF47A73C2F381426AB141
:103C8000022A0BD0D1F8002542F08042C1F800256D
:103C9000D0F8100410F47F0F2ED009E0D1F80025E1
:103CA00042F08042C1F80025C06A10F47F0F07D0AF
:103CB000D1F8000540F00040C1F800050020704731
:103CC000D1F8000520F00040C1F80005D1F800054A
:103CD00040F00040C1F80005D1F8000520F4004094
:103CE000C1F80005012002E0401C9842E6D8D1F856
:103CF0000025002AF8DBE1E7D1F8000520F00040BC
:103D0000C1F80005D1F8000540F00040C1F80005F9
:103D1000D1F8000520F40040C1F80005012002E0C0
:103D2000401C9842CAD8D1F80025002AF8DBC5E724
:103D30002DE9F0430026DDE9078500EB4114771EED
:103D4000DDF82490C4F80875CDB1012D32D0022DD4
:103D500015D0032D27D00126D0F8187401F00F0CD0
:103D6000012101FA0CF10F43C0F81874816941F088
:103D70000071816110062AD54FF4004028E040F21E
:103D80009D47C4F80C75170605D500BFD4F80C750F
:103D900047F4807718E0C76BFF05DDD5D4F80C75C4
:103DA00047F0600710E040F29D67C4F80C751706F5
:103DB000ECD4D1E740F22527C4F80C751706CBD513
:103DC000D4F80C7547F4C077C4F80C75C4E700202C
:103DD000B8F1020F18D000214FF0FE5707EA8353C5
:103DE0004FF4F04707EAC22213434FF4402202EA9D
:103DF00085421343C9F30A02134303430B43C4F838
:103E00000035032D03D008E04FF40031E4E7D4F887
:103E1000000540F00050C4F800053046BDE8F083CE
:103E2000D0F8140480B27047F8B54C78C56B4FF4E5
:103E30008073ED054FF0000715D50D799DB912B1CE
:103E4000012A07D00FE04D79012D0CD12146FFF753
:103E5000AFFE8CE000EB4415D5F80C6526F060064B
:103E6000C5F80C654F710E695EB10D892E44761E42
:103E7000B6FBF5F6B6B29E4204D91E462B020B6184
:103E800000E00126CB78CBB30B897343C1F8103027
:103E90006FF06045C3F3120305EAC6452B438D7AE4
:103EA0004FF0C04606EA45752B4300EB4414054627
:103EB000C4F8103512B1CB68C4F81435D5F80834FD
:103EC000D4F8005543F3000325F00055C4F800551D
:103ED000D4F800555B1C45EA4373C4F80035D4F8A8
:103EE0000055244B1D601D6825F080451D60CD7870
:103EF000002D1D6805D045F4004504E0FFE70B697F
:103F0000C6E725F400451D601D6845F000451D60AD
:103F10001B68C4F8003552BBCA7842BB0A6932B389
:103F2000CB7933B1012B0FD0022B02D0032B17D149
:103F30000AE0D21CC36AC2F38F029BB293420FD233
:103F4000826942F020020AE0D21CD0F81034C2F399
:103F50008F029BB2934203D2826942F080628261F7
:103F600000970A8A93B24A78C96800F00EF90020D7
:103F7000F8BD0000040000202DE9F0410025DDF827
:103F8000188017460446C0F8005E806B40F40010AD
:103F9000A063A06B20F40020A063A06B20F480201D
:103FA000A063E06BC00501D5032B04D0D4F8000456
:103FB00020F0040103E0D4F8000440F0040120469E
:103FC000C4F800141021FFF731FE2046FFF71EFE53
:103FD0000020461E07E000BF04EB4011C1F8086551
:103FE000C1F80C55401C8742F6D801212046FFF746
:103FF000F1FDC820FCF78EFCA5616661E06BC00591
:1040000006D54FF4007060620C48A0620C4804E0D2
:10401000802060620B48A0620B48C4F80001B8F130
:10402000000F03D1A06940F01000A061A06907490A
:104030000843A0610020BDE8F081000000020001FB
:104040000003E00080006000E0004000080020A3C2
:10405000D0F8002422F00302C0F80024D0F8002495
:1040600001F003031A43C0F80024012902D00229F9
:1040700003D006E04BF6803101E041F27071C0F8E8
:104080000414002070474169806908407047D21CC1
:1040900010B59308002200F5805002E00468521C1D
:1040A00010C19A42FAD3084610BD38B50446D0F87C
:1040B000400420F02E00009040F48070C4F84004CA
:1040C000642004F58864FCF725FC009820F48070D7
:1040D00020600A20FCF71EFC002038BD10B5C26825
:1040E00022F0C042C260012902D029B1012010BDD6
:1040F000C16841F0005102E0C16841F08041C160F7
:104100003220FCF707FC002010BD000030B504464B
:104110008068002520F00100A06010212046FFF7F4
:1041200085FD2046FFF772FD5FF0000004EB4011B3
:10413000D1F8002522F0802242F08042C1F800250B
:10414000401C0F28F2D900204FF47A7304EB401181
:10415000D1F8002522F4004242F04042C1F8002587
:104160006D1C9D4203D8D1F80025002AF8DB401CC5
:104170000F28EBD94FF0FF30C4F814046061A06839
:1041800040F00100A060002030BD10B5029C64B971
:10419000DB1C9C0800EB0230002300F5805002E09D
:1041A00004C902605B1CA342FAD3002010BDFEE7E5
:1041B0000FB4084B10B504A902AA039800F02CF81C
:1041C000044602A9002000F0D1F8204610BC5DF89A
:1041D00014FB00006D4300080907090E002804DBEA
:1041E00000F1E02080F80014704700F00F0000F1AB
:1041F000E02080F8141D704702E008C8121F08C1B3
:10420000002AFAD170477047002001E001C1121F57
:10421000002AFBD1704700002DE9FF4F89B09B4673
:104220000446002506E025280BD05A460B999047F6
:10423000641C6D1C20780028F5D10DB02846BDE81F
:10424000F08F0027B8460122474900E0074314F8E1
:10425000013F203B02FA03F00842F7D120782E28D4
:1042600019D114F8010F47F004072A280ED06FF077
:104270002F022078A0F1300109290CD808EB880121
:1042800002EB410100EB0108641CF2E70A98641C90
:1042900050F8048B0A9020780028CED0642808D0EB
:1042A000692806D075281ED05A460B9990476D1C78
:1042B00058E00A994FF00A0901C90A91002802DA68
:1042C00040422D2102E0390504D52B218DF8201024
:1042D000012103E0F90704D02021F7E78A4608AE60
:1042E0000DE00021FAE70A994FF00A0901C90A9185
:1042F000F7E74946FBF7B9FF303106F8011D002802
:10430000F7D1ADEB060000F12009780701D44FF09A
:104310000108C84502DDA8EB090000E00020804646
:10432000002706E008A85A46C05D0B9990476D1C0F
:104330007F1C5745F6DB04E030205A460B99904726
:104340006D1CB8F10001A8F10108F5DC05E016F8D4
:10435000010B5A460B9990476D1CB9F10001A9F168
:104360000109F4DC641C65E7092801000A68531C94
:104370000B60107070472DE9F0478146401E00F039
:10438000FF0809F10100C6B2481EC7B2481CC5B2F9
:104390000C464046B8F1500F02D20122FEF712FA45
:1043A000502E04D2012221463046FEF70BFA2C2F64
:1043B00004D2012239464846FEF704FA2C2D04D2D5
:1043C000012229464846FEF7FDF92B46324639467A
:1043D0004046BDE8F047FEF76BB900002DE9F84F05
:1043E00092468B4680461A4632A16846FFF7E0FEA9
:1043F0000FF2C409FEF7A4F8542208210020FEF7AA
:10440000B3F8542209210020FEF7AEF854222F21E0
:104410000020FEF7A9F854222E210020FEF7A4F870
:10442000252208210020FEF7C3F8252208210120BB
:10443000FEF7BEF8252208215220FEF7B9F8252202
:1044400008215320FEF7B4F80025002404EB840172
:1044500008EBC107785D012810D10A2000EB440168
:10446000022000EB450006460222FEF77DF80B20F5
:1044700000EB440130460222FEF776F8785D022810
:1044800003D151465846FFF776FF641C132CDDDB41
:104490006D1C282DD9DBFEF739F90022232148466F
:1044A000FEF7D8F8002246216846FEF7D3F8BDE8AB
:1044B000F88F00002564000053434F52453A200016
:1044C00010B5002821D0114B0022001F196803E00D
:1044D000814203D80A4649680029F9D152B11368CC
:1044E000841A9C4204D1006818441060104602E00F
:1044F000506000E0186039B102680B1A934203D192
:104500000B681A4402604968416010BD3800002001
:10451000ADF5407DFCF7FEFFFEF7E2FB2A4C802163
:104520002046FEF76FF9A1152046FEF733F9611515
:104530002046FEF73BF921152046FEF73DF9E11430
:104540002046FEF72DF9FEF7F1F9FEF7A3FAFEF784
:10455000C1FAFEF7DDFAFEF7FFFAFEF775F9FEF78E
:10456000A7F9FEF749F800210A466B465FF0000004
:1045700000EB800403EBC404401C62541328F7DBF7
:10458000491C2829F2DB4FF4BE6000F01FF8BF90F1
:10459000BF9932204FF4FA740870BF994870012017
:1045A0008DF8F9028DF8F802BEA96846FEF704FB03
:1045B00045231E2232216846FFF710FF2046FCF7F4
:1045C000A9F9FEF7E9FAEFE700100240F0B50B3069
:1045D000154D20F007010024144A0FE003688B42B8
:1045E0000BD38B4205D95E1A43184768C3E90067AD
:1045F00000E04368136002C004E0021D1068002858
:10460000ECD12046002802D1286808B10020F0BD76
:10461000064A07481060074A121A22F00702C0E94A
:10462000002401202860D7E73C000020380000204B
:104630007C0A0020780C0020000000000000000030
:10464000005F000000000700070000147F147F14C3
:1046500000242A7F2A120023130864620036495579
:10466000225000000503000000001C224100000051
:1046700041221C000014083E08140008083E0808E7
:1046800000005030000000080808080800006060C2
:104690000000002010080402003E5149453E000081
:1046A000427F4000004261514946002141454B3163
:1046B000001814127F10002745454539003C4A492F
:1046C00049300001710905030036494949360006A1
:1046D0004949291E00003636000000005636000009
:1046E0000008142241000014141414140000412284
:1046F000140800020151090600324979413E007E4A
:104700001111117E007F49494936003E4141412245
:10471000007F4141221C007F49494941007F09092E
:104720000901003E4149497A007F0808087F0000DE
:10473000417F4100002040413F01007F0814224199
:10474000007F40404040007F020C027F007F040851
:10475000107F003E4141413E007F09090906003EAD
:104760004151215E007F09192946004649494931D6
:104770000001017F0101003F4040403F001F2040F9
:10478000201F003F4038403F0063140814630007B7
:104790000870080700615149454300007F4141000E
:1047A000000204081020000041417F0000040201C3
:1047B000020400404040404000000102040000208C
:1047C00054545478007F48444438003844444420CA
:1047D00000384444487F00385454541800087E0977
:1047E0000102000C5252523E007F0804047800007F
:1047F000447D4000002040443D00007F10284400DC
:104800000000417F4000007C04180478007C08040C
:104810000478003844444438007C14141408000818
:104820001414187C007C08040408004854545420D4
:1048300000043F444020003C4040207C001C2040BD
:10484000201C003C4030403C004428102844000C10
:104850005050503C004464544C4400000836410021
:104860000000007F0000000041360800001008082A
:104870001008007846414678000000000000000063
:1048800001020304060708090000000001020304F6
:1048900043444300B44800080000002040000000EA
:1048A000F8410008F44800084000002038100000DB
:1048B00008420008000000000000000001000000A5
:1048C00010000000000000000024F40090480008E0
:1048D00002000000AF2E0008512E00082D2E000807
:1048E000E52F00089F3000080000000000000000D5
:0448F00000000000C4
:040000050800018965
:00000001FF
